{
  "_format": "hh-sol-artifact-1",
  "contractName": "Capita",
  "sourceName": "contracts/Capita.sol",
  "abi": [
    {
      "inputs": [
        {
          "internalType": "string",
          "name": "_projectURL",
          "type": "string"
        },
        {
          "internalType": "uint256",
          "name": "_numOfsecOwners",
          "type": "uint256"
        },
        {
          "internalType": "address[]",
          "name": "_secOwners",
          "type": "address[]"
        },
        {
          "internalType": "uint256",
          "name": "_totalSupply",
          "type": "uint256"
        },
        {
          "internalType": "string",
          "name": "_tokenName",
          "type": "string"
        },
        {
          "internalType": "string",
          "name": "_symbol",
          "type": "string"
        }
      ],
      "name": "createProject",
      "outputs": [],
      "stateMutability": "nonpayable",
      "type": "function"
    },
    {
      "inputs": [
        {
          "internalType": "uint256",
          "name": "projectID",
          "type": "uint256"
        }
      ],
      "name": "disburse",
      "outputs": [],
      "stateMutability": "nonpayable",
      "type": "function"
    },
    {
      "inputs": [
        {
          "internalType": "uint256",
          "name": "projectID",
          "type": "uint256"
        }
      ],
      "name": "getAllocation",
      "outputs": [
        {
          "internalType": "uint256[]",
          "name": "",
          "type": "uint256[]"
        }
      ],
      "stateMutability": "view",
      "type": "function"
    },
    {
      "inputs": [
        {
          "internalType": "uint256",
          "name": "projectID",
          "type": "uint256"
        }
      ],
      "name": "getSecOwners",
      "outputs": [
        {
          "internalType": "address[]",
          "name": "",
          "type": "address[]"
        }
      ],
      "stateMutability": "view",
      "type": "function"
    },
    {
      "inputs": [],
      "name": "numOfProjects",
      "outputs": [
        {
          "internalType": "uint256",
          "name": "",
          "type": "uint256"
        }
      ],
      "stateMutability": "view",
      "type": "function"
    },
    {
      "inputs": [
        {
          "internalType": "uint256",
          "name": "",
          "type": "uint256"
        }
      ],
      "name": "projects",
      "outputs": [
        {
          "internalType": "string",
          "name": "projectURL",
          "type": "string"
        },
        {
          "internalType": "address",
          "name": "erc20",
          "type": "address"
        },
        {
          "internalType": "uint256",
          "name": "numOfsecOwners",
          "type": "uint256"
        },
        {
          "internalType": "address",
          "name": "owner",
          "type": "address"
        },
        {
          "internalType": "bool",
          "name": "disbursed",
          "type": "bool"
        }
      ],
      "stateMutability": "view",
      "type": "function"
    },
    {
      "inputs": [
        {
          "internalType": "uint256",
          "name": "projectID",
          "type": "uint256"
        },
        {
          "internalType": "uint256[]",
          "name": "_allocation",
          "type": "uint256[]"
        }
      ],
      "name": "setAllocation",
      "outputs": [],
      "stateMutability": "nonpayable",
      "type": "function"
    }
  ],
  "bytecode": "0x608060405234801561001057600080fd5b50611a95806100206000396000f3fe60806040523480156200001157600080fd5b5060043610620000875760003560e01c806365b1d875116200006257806365b1d87514620000fe578063763f4f92146200012457806383d3cfd3146200013b578063bd77ac2c146200015457600080fd5b8063107046bd146200008c57806333ec442b14620000bf5780635a5804b314620000d8575b600080fd5b620000a36200009d36600462000a1c565b6200016b565b604051620000b695949392919062000bd6565b60405180910390f35b620000d6620000d036600462000a50565b6200023d565b005b620000ef620000e936600462000a1c565b620002ac565b604051620000b6919062000b9c565b620001156200010f36600462000a1c565b62000311565b604051620000b6919062000b4d565b620000d66200013536600462000950565b6200037f565b6200014560015481565b604051908152602001620000b6565b620000d66200016536600462000a1c565b6200048d565b600060208190529081526040902080548190620001889062000d3c565b80601f0160208091040260200160405190810160405280929190818152602001828054620001b69062000d3c565b8015620002075780601f10620001db5761010080835404028352916020019162000207565b820191906000526020600020905b815481529060010190602001808311620001e957829003601f168201915b505050506001830154600284015460059094015492936001600160a01b039182169390925090811690600160a01b900460ff1685565b6000828152602081905260409020600501546001600160a01b03163314620002825760405162461bcd60e51b8152600401620002799062000c1e565b60405180910390fd5b6000828152602081815260409091208251620002a792600490920191840190620006d4565b505050565b600081815260208181526040918290206004018054835181840281018401909452808452606093928301828280156200030557602002820191906000526020600020905b815481526020019060010190808311620002f0575b50505050509050919050565b600081815260208181526040918290206003018054835181840281018401909452808452606093928301828280156200030557602002820191906000526020600020905b81546001600160a01b03168152600190910190602001808311620003555750505050509050919050565b60018054906000620003918362000d79565b90915550506001546000908152602081815260409091208751620003b89289019062000724565b5060018054600090815260208181526040808320600201899055925482529190208551620003ef92600390920191870190620007a0565b5060015460009081526020819052604080822060050180546001600160a01b03191633179055518490849084906200042790620007f8565b620004359392919062000c63565b604051809103906000f08015801562000452573d6000803e3d6000fd5b506001805460009081526020819052604090200180546001600160a01b0319166001600160a01b039290921691909117905550505050505050565b6000818152602081905260409020600501546001600160a01b03163314620004c95760405162461bcd60e51b8152600401620002799062000c1e565b6000818152602081905260408120600101546001600160a01b0316905b600083815260208190526040902060030154811015620006ae57816001600160a01b031663a9059cbb600080868152602001908152602001600020600301838154811062000538576200053862000dad565b9060005260206000200160009054906101000a90046001600160a01b03166064856001600160a01b03166318160ddd6040518163ffffffff1660e01b815260040160206040518083038186803b1580156200059257600080fd5b505afa158015620005a7573d6000803e3d6000fd5b505050506040513d601f19601f82011682018060405250810190620005cd919062000a36565b6000888152602081905260409020600401805487908110620005f357620005f362000dad565b90600052602060002001546200060a919062000d1a565b62000616919062000cf7565b6040516001600160e01b031960e085901b1681526001600160a01b0390921660048301526024820152604401602060405180830381600087803b1580156200065d57600080fd5b505af115801562000672573d6000803e3d6000fd5b505050506040513d601f19601f8201168201806040525081019062000698919062000925565b5080620006a58162000d79565b915050620004e6565b50506000908152602081905260409020600501805460ff60a01b1916600160a01b179055565b82805482825590600052602060002090810192821562000712579160200282015b8281111562000712578251825591602001919060010190620006f5565b506200072092915062000806565b5090565b828054620007329062000d3c565b90600052602060002090601f01602090048101928262000756576000855562000712565b82601f106200077157805160ff191683800117855562000712565b8280016001018555821562000712579182018281111562000712578251825591602001919060010190620006f5565b82805482825590600052602060002090810192821562000712579160200282015b828111156200071257825182546001600160a01b0319166001600160a01b03909116178255602090920191600190910190620007c1565b610c868062000dda83390190565b5b8082111562000720576000815560010162000807565b600082601f8301126200082f57600080fd5b8135602062000848620008428362000cd0565b62000c9c565b80838252828201915082860187848660051b89010111156200086957600080fd5b6000805b86811015620008a05782356001600160a01b03811681146200088d578283fd5b855293850193918501916001016200086d565b509198975050505050505050565b600082601f830112620008c057600080fd5b813567ffffffffffffffff811115620008dd57620008dd62000dc3565b620008f2601f8201601f191660200162000c9c565b8181528460208386010111156200090857600080fd5b816020850160208301376000918101602001919091529392505050565b6000602082840312156200093857600080fd5b815180151581146200094957600080fd5b9392505050565b60008060008060008060c087890312156200096a57600080fd5b863567ffffffffffffffff808211156200098357600080fd5b620009918a838b01620008ae565b9750602089013596506040890135915080821115620009af57600080fd5b620009bd8a838b016200081d565b9550606089013594506080890135915080821115620009db57600080fd5b620009e98a838b01620008ae565b935060a089013591508082111562000a0057600080fd5b5062000a0f89828a01620008ae565b9150509295509295509295565b60006020828403121562000a2f57600080fd5b5035919050565b60006020828403121562000a4957600080fd5b5051919050565b6000806040838503121562000a6457600080fd5b8235915060208084013567ffffffffffffffff81111562000a8457600080fd5b8401601f8101861362000a9657600080fd5b803562000aa7620008428262000cd0565b80828252848201915084840189868560051b870101111562000ac857600080fd5b600094505b8385101562000aed57803583526001949094019391850191850162000acd565b5080955050505050509250929050565b6000815180845260005b8181101562000b255760208185018101518683018201520162000b07565b8181111562000b38576000602083870101525b50601f01601f19169290920160200192915050565b6020808252825182820181905260009190848201906040850190845b8181101562000b905783516001600160a01b03168352928401929184019160010162000b69565b50909695505050505050565b6020808252825182820181905260009190848201906040850190845b8181101562000b905783518352928401929184019160010162000bb8565b60a08152600062000beb60a083018862000afd565b6001600160a01b039687166020840152604083019590955250919093166060820152911515608090920191909152919050565b60208082526025908201527f596f7520617265206e6f7420746865206f776e6572206f6620746869732070726040820152641bda9958dd60da1b606082015260800190565b83815260606020820152600062000c7e606083018562000afd565b828103604084015262000c92818562000afd565b9695505050505050565b604051601f8201601f1916810167ffffffffffffffff8111828210171562000cc85762000cc862000dc3565b604052919050565b600067ffffffffffffffff82111562000ced5762000ced62000dc3565b5060051b60200190565b60008262000d1557634e487b7160e01b600052601260045260246000fd5b500490565b600081600019048311821515161562000d375762000d3762000d97565b500290565b600181811c9082168062000d5157607f821691505b6020821081141562000d7357634e487b7160e01b600052602260045260246000fd5b50919050565b600060001982141562000d905762000d9062000d97565b5060010190565b634e487b7160e01b600052601160045260246000fd5b634e487b7160e01b600052603260045260246000fd5b634e487b7160e01b600052604160045260246000fdfe60806040523480156200001157600080fd5b5060405162000c8638038062000c868339810160408190526200003491620002d5565b8151829082906200004d90600390602085019062000178565b5080516200006390600490602084019062000178565b505050620000873384670de0b6b3a764000062000081919062000364565b62000090565b505050620003ef565b6001600160a01b038216620000eb5760405162461bcd60e51b815260206004820152601f60248201527f45524332303a206d696e7420746f20746865207a65726f206164647265737300604482015260640160405180910390fd5b8060026000828254620000ff919062000349565b90915550506001600160a01b038216600090815260208190526040812080548392906200012e90849062000349565b90915550506040518181526001600160a01b038316906000907fddf252ad1be2c89b69c2b068fc378daa952ba7f163c4a11628f55a4df523b3ef9060200160405180910390a35050565b828054620001869062000386565b90600052602060002090601f016020900481019282620001aa5760008555620001f5565b82601f10620001c557805160ff1916838001178555620001f5565b82800160010185558215620001f5579182015b82811115620001f5578251825591602001919060010190620001d8565b506200020392915062000207565b5090565b5b8082111562000203576000815560010162000208565b600082601f8301126200023057600080fd5b81516001600160401b03808211156200024d576200024d620003d9565b604051601f8301601f19908116603f01168101908282118183101715620002785762000278620003d9565b816040528381526020925086838588010111156200029557600080fd5b600091505b83821015620002b957858201830151818301840152908201906200029a565b83821115620002cb5760008385830101525b9695505050505050565b600080600060608486031215620002eb57600080fd5b835160208501519093506001600160401b03808211156200030b57600080fd5b62000319878388016200021e565b935060408601519150808211156200033057600080fd5b506200033f868287016200021e565b9150509250925092565b600082198211156200035f576200035f620003c3565b500190565b6000816000190483118215151615620003815762000381620003c3565b500290565b600181811c908216806200039b57607f821691505b60208210811415620003bd57634e487b7160e01b600052602260045260246000fd5b50919050565b634e487b7160e01b600052601160045260246000fd5b634e487b7160e01b600052604160045260246000fd5b61088780620003ff6000396000f3fe608060405234801561001057600080fd5b50600436106100a95760003560e01c80633950935111610071578063395093511461012357806370a082311461013657806395d89b411461015f578063a457c2d714610167578063a9059cbb1461017a578063dd62ed3e1461018d57600080fd5b806306fdde03146100ae578063095ea7b3146100cc57806318160ddd146100ef57806323b872dd14610101578063313ce56714610114575b600080fd5b6100b66101a0565b6040516100c3919061079b565b60405180910390f35b6100df6100da366004610771565b610232565b60405190151581526020016100c3565b6002545b6040519081526020016100c3565b6100df61010f366004610735565b61024a565b604051601281526020016100c3565b6100df610131366004610771565b61026e565b6100f36101443660046106e0565b6001600160a01b031660009081526020819052604090205490565b6100b6610290565b6100df610175366004610771565b61029f565b6100df610188366004610771565b61031f565b6100f361019b366004610702565b61032d565b6060600380546101af90610816565b80601f01602080910402602001604051908101604052809291908181526020018280546101db90610816565b80156102285780601f106101fd57610100808354040283529160200191610228565b820191906000526020600020905b81548152906001019060200180831161020b57829003601f168201915b5050505050905090565b600033610240818585610358565b5060019392505050565b60003361025885828561047c565b6102638585856104f6565b506001949350505050565b600033610240818585610281838361032d565b61028b91906107f0565b610358565b6060600480546101af90610816565b600033816102ad828661032d565b9050838110156103125760405162461bcd60e51b815260206004820152602560248201527f45524332303a2064656372656173656420616c6c6f77616e63652062656c6f77604482015264207a65726f60d81b60648201526084015b60405180910390fd5b6102638286868403610358565b6000336102408185856104f6565b6001600160a01b03918216600090815260016020908152604080832093909416825291909152205490565b6001600160a01b0383166103ba5760405162461bcd60e51b8152602060048201526024808201527f45524332303a20617070726f76652066726f6d20746865207a65726f206164646044820152637265737360e01b6064820152608401610309565b6001600160a01b03821661041b5760405162461bcd60e51b815260206004820152602260248201527f45524332303a20617070726f766520746f20746865207a65726f206164647265604482015261737360f01b6064820152608401610309565b6001600160a01b0383811660008181526001602090815260408083209487168084529482529182902085905590518481527f8c5be1e5ebec7d5bd14f71427d1e84f3dd0314c0f7b2291e5b200ac8c7c3b925910160405180910390a3505050565b6000610488848461032d565b905060001981146104f057818110156104e35760405162461bcd60e51b815260206004820152601d60248201527f45524332303a20696e73756666696369656e7420616c6c6f77616e63650000006044820152606401610309565b6104f08484848403610358565b50505050565b6001600160a01b03831661055a5760405162461bcd60e51b815260206004820152602560248201527f45524332303a207472616e736665722066726f6d20746865207a65726f206164604482015264647265737360d81b6064820152608401610309565b6001600160a01b0382166105bc5760405162461bcd60e51b815260206004820152602360248201527f45524332303a207472616e7366657220746f20746865207a65726f206164647260448201526265737360e81b6064820152608401610309565b6001600160a01b038316600090815260208190526040902054818110156106345760405162461bcd60e51b815260206004820152602660248201527f45524332303a207472616e7366657220616d6f756e7420657863656564732062604482015265616c616e636560d01b6064820152608401610309565b6001600160a01b0380851660009081526020819052604080822085850390559185168152908120805484929061066b9084906107f0565b92505081905550826001600160a01b0316846001600160a01b03167fddf252ad1be2c89b69c2b068fc378daa952ba7f163c4a11628f55a4df523b3ef846040516106b791815260200190565b60405180910390a36104f0565b80356001600160a01b03811681146106db57600080fd5b919050565b6000602082840312156106f257600080fd5b6106fb826106c4565b9392505050565b6000806040838503121561071557600080fd5b61071e836106c4565b915061072c602084016106c4565b90509250929050565b60008060006060848603121561074a57600080fd5b610753846106c4565b9250610761602085016106c4565b9150604084013590509250925092565b6000806040838503121561078457600080fd5b61078d836106c4565b946020939093013593505050565b600060208083528351808285015260005b818110156107c8578581018301518582016040015282016107ac565b818111156107da576000604083870101525b50601f01601f1916929092016040019392505050565b6000821982111561081157634e487b7160e01b600052601160045260246000fd5b500190565b600181811c9082168061082a57607f821691505b6020821081141561084b57634e487b7160e01b600052602260045260246000fd5b5091905056fea26469706673582212209e5d456708d3e8415ea65a0801fed2cb35ae130b02ea55370d7f3ff348b281fc64736f6c63430008060033a26469706673582212202da736a6852bae0ee07ed72dbe5be09633f5f97f918e1172b79e7905bf54c90064736f6c63430008060033",
  "linkReferences": {},
  "deployedLinkReferences": {}
}